:100000000C9462000C948A000C948A000C948A0070
:100010000C948A000C948A000C948A000C948A0038
:100020000C948A000C948A000C948A000C948A0028
:100030000C948A000C947C060C948A000C948A0020
:100040000C9432060C948A000C9400060C94DA0589
:100050000C948A000C948A000C948A000C948A00F8
:100060000C948A000C948A000000000024002700F1
:100070002A0000000000250028002B0000000000DE
:1000800023002600290004040404040404040202DA
:100090000202020203030303030301020408102007
:1000A0004080010204081020010204081020000012
:1000B0000008000201000003040700000000000027
:1000C0000000A30611241FBECFEFD8E0DEBFCDBFD6
:1000D00011E0A0E0B1E0E0E9F4E102C005900D928A
:1000E000A638B107D9F722E0A6E8B1E001C01D9219
:1000F000AC34B207E1F710E0C2E6D0E004C02197CB
:10010000FE010E94400AC136D107C9F70E94EE06DF
:100110000C94460A0C940000DC01ED91FC910190D6
:10012000F081E02D0994AF92BF92CF92DF92EF92CF
:10013000FF920F931F93CF93DF936C017B018B0191
:10014000040F151FEB015E01AE18BF08C017D107E1
:1001500059F06991D601ED91FC910190F081E02D6B
:10016000C6010995892B79F7C501DF91CF911F91C0
:100170000F91FF90EF90DF90CF90BF90AF900895D8
:10018000FC01538D448D252F30E0842F90E0821B9D
:10019000930B541710F0CF96089501970895FC0122
:1001A000918D828D981761F0A28DAE0FBF2FB11D7A
:1001B0005D968C91928D9F5F9F73928F90E00895D2
:1001C0008FEF9FEF0895FC01918D828D981731F08C
:1001D000828DE80FF11D858D90E008958FEF9FEFE0
:1001E0000895FC01918D228D892F90E0805C9F4FB6
:1001F000821B91098F739927089587E991E00E94E6
:10020000F10021E0892B09F420E0822F089580E09D
:1002100090E0892B29F00E94FD0081110C940000D0
:100220000895FC01A48DA80FB92FB11DA35ABF4F8B
:100230002C91848D90E001968F739927848FA689E5
:10024000B7892C93A089B1898C91837080648C9339
:10025000938D848D981306C00288F389E02D8081E8
:100260008F7D80830895EF92FF920F931F93CF931A
:10027000DF93EC0181E0888F9B8D8C8D98131AC0E1
:10028000E889F989808185FF15C09FB7F894EE89C8
:10029000FF896083E889F989808183708064808325
:1002A0009FBF81E090E0DF91CF911F910F91FF9070
:1002B000EF900895F62E0B8D10E00F5F1F4F0F7318
:1002C0001127E02E8C8D8E110CC00FB607FCFACFD3
:1002D000E889F989808185FFF5CFCE010E9411015F
:1002E000F1CFEB8DEC0FFD2FF11DE35AFF4FF082A4
:1002F0009FB7F8940B8FEA89FB8980818062CFCF0A
:10030000CF93DF93EC01888D8823B9F0AA89BB894C
:10031000E889F9898C9185FD03C0808186FD0DC037
:100320000FB607FCF7CF8C9185FFF2CF808185FF58
:10033000EDCFCE010E941101E9CFDF91CF91089559
:10034000833081F028F4813099F08230A9F008954B
:100350008730A9F08830C9F08430B1F480918000F2
:100360008F7D03C0809180008F77809380000895F7
:1003700084B58F7784BD089584B58F7DFBCF809140
:10038000B0008F778093B00008958091B0008F7D8A
:10039000F9CFCF93DF93282F30E0F901E255FF4FDB
:1003A0008491F901E656FF4FD491F901EA57FF4FC6
:1003B000C491CC23A1F081110E94A001EC2FF0E0A8
:1003C000EE0FFF1FE458FF4FA591B491EC91ED2380
:1003D00081E090E009F480E0DF91CF91089580E022
:1003E00090E0FACF1F93CF93DF93282F30E0F901ED
:1003F000E255FF4F8491F901E656FF4FD491F90180
:10040000EA57FF4FC491CC23A9F0162F81110E9407
:10041000A001EC2FF0E0EE0FFF1FEE58FF4FA5916B
:10042000B4918FB7F894EC91111108C0D095DE23E8
:10043000DC938FBFDF91CF911F910895DE2BF8CF12
:10044000CF93DF9390E0FC01E656FF4F24918A574B
:100450009F4FFC0184918823D1F090E0880F991F71
:10046000FC01E859FF4FA591B491FC01EE58FF4FF4
:10047000C591D49161110EC09FB7F8948C91E22F71
:10048000E0958E238C932881E223E8839FBFDF9140
:10049000CF9108958FB7F894EC91E22BEC938FBF36
:1004A000F6CF089590E080E008950895CF93DF930C
:1004B000EC0160E08E810E94F20161E08E810E9479
:1004C000F20160E08E810E94F2018BE891E00197D9
:1004D000F1F7DF91CF910895CF92DF92EF92FF92E3
:1004E0000F931F93CF93DF936C017C0187E0E80E9D
:1004F000F11CD0E0C0E0062F10E0B8010C2E02C0C5
:10050000759567950A94E2F76170F70181917F0113
:100510000E94F2012196C430D10579F7C601DF911E
:10052000CF911F910F91FF90EF90DF90CF900C949F
:100530005602CF92DF92EF92FF920F931F93CF93C9
:10054000DF93EC01F62E642F8C810E94F2018D81E5
:100550008F3F19F060E00E94F2010F2D10E08F85AF
:1005600084FF25C06E0187E0C80ED11CF12CE12C60
:10057000B8010E2C02C0759567950A94E2F7617078
:10058000F60181916F010E94F201FFEFEF1AFF0A5D
:1005900088E0E816F10461F7CE01DF91CF911F9159
:1005A0000F91FF90EF90DF90CF900C945602B8011E
:1005B00084E0759567958A95E1F7CE010E946C02FB
:1005C0006F2DCE01DF91CF911F910F91FF90EF9092
:1005D000DF90CF900C946C0240E0682F84E392E0AF
:1005E0000C94990290914702691710F06FEF690F10
:1005F000E62FF0E0EC5CFD4F9489890F80680C9445
:10060000EC02CF93DF93613029F090914302986020
:1006100090934302609347021092480290E49093B3
:10062000490280934A02805C80934B0261E0809192
:1006300038020E942002809139028F3F19F061E058
:100640000E94200261E080913A020E942002C4E3ED
:10065000D2E09E01245332408091430284FD0BC0BE
:1006600084E090E021962817390744F461E08E81F8
:100670000E942002EECF88E090E0F4CF8BE39DE073
:100680000197F1F760E0809138020E94F20160E08A
:1006900080913A020E94F201809139028F3F19F055
:1006A00060E00E94F2018091430284FD39C063E062
:1006B00084E392E00E946C02CBE4D6E4CE01019781
:1006C000F1F763E084E392E00E946C022197F1F776
:1006D00063E084E392E00E946C0283E592E001977C
:1006E000F1F762E084E392E00E946C0280914302A1
:1006F00080620E94EC0284E0809344028CE00E94BD
:10070000EC0281E00E94EC028BE39FE10197F1F79C
:1007100082E08093450286E0DF91CF910C94EC0259
:1007200080620E94EC028BE496E40197F1F78091DD
:10073000430280620E94EC0283E592E00197F1F7A8
:100740008091430280620E94EC02D0CF41E00E947F
:10075000990281E090E00895FB0101900020E9F703
:100760003197AF01461B570BDC01ED91FC910280E4
:10077000F381E02D09948F929F92AF92BF92EF92F6
:10078000FF920F931F93CF93DF93CDB7DEB7A1975F
:100790000FB6F894DEBF0FBECDBF7C01FA01CB01CE
:1007A00019A2223008F42AE08E010F5D1F4F822E1D
:1007B000912CB12CA12CBF01A50194010E941E0A0D
:1007C000F901CA016A300CF5605DD8016E938D01A4
:1007D000232B242B252B79F790E080E0109721F034
:1007E000BD01C7010E94AC03A1960FB6F894DEBF0D
:1007F0000FBECDBFDF91CF911F910F91FF90EF9072
:10080000BF90AF909F908F900895695CDECFCF929C
:10081000DF92EF92FF920F931F93CF93DF936B01C1
:10082000770FEE08FF08F7FE1BC0EC016DE20E9497
:100830008C008C0144275527BA014C195D096E09BB
:100840007F092AE0CE010E94BB03800F911FDF9138
:10085000CF911F910F91FF90EF90DF90CF9008956F
:100860002AE0B701A601DF91CF911F910F91FF9070
:10087000EF90DF90CF900C94BB032F923F924F925A
:100880005F926F927F928F929F92AF92BF92CF9220
:10089000DF92EF92FF921F93CF93DF93EC016A01F7
:1008A0007B01722EAB019601CB01B6010E94190AA1
:1008B00060E271E0811126C046015701E894B7F863
:1008C0002FEF3FEF4FE75FE7C501B4010E94190A20
:1008D00081110CC02FEF3FEF4FE75FE7C501B40177
:1008E0000E944F0864E271E0181664F02FEF3FEFAA
:1008F0004FE75FE4C701B6010E94A7091816B4F4D8
:1009000068E271E0CE01DF91CF911F91FF90EF90EF
:10091000DF90CF90BF90AF909F908F907F906F901F
:100920005F904F903F902F900C94AC032FEF3FEFD0
:100930004FE75FECC701B6010E944F0887FDE0CF8B
:1009400020E030E0A901C701B6010E944F08312C18
:10095000212C87FF09C06DE2CE010E948C001C0192
:10096000F7FAF094F7F8F09410E060E070E080E0BF
:100970009FE3711641F020E030E040E251E40E9434
:1009800054081F5FF6CFA70196010E94E3072B01D1
:100990003C010E94C6084B015C012AE0BC01A40195
:1009A000CE010E94BB037C01E20CF31C1123C1F1B8
:1009B000C501B4010E94F5089B01AC01C301B2015D
:1009C0000E94E2074B015C016EE2CE010E948C00A6
:1009D000E80EF91E115020F120E030E040E251E431
:1009E000C501B4010E94AC092B013C010E94C6085C
:1009F0004B01B12CA12C2AE0B501A401CE010E942B
:100A0000BB03E80EF91EC501B4010E94F5089B0165
:100A1000AC01C301B2010E94E2074B015C01DACFD5
:100A2000C701DF91CF911F91FF90EF90DF90CF90A2
:100A3000BF90AF909F908F907F906F905F904F90FE
:100A40003F902F900895CF92DF92EF92FF92CF9335
:100A5000DF9380918801909189010196909389019B
:100A60008093880181E480937C0080917A00806487
:100A700080937A0080917A0086FDFCCF8091780087
:100A800060917900762F682F072E000C880B990B48
:100A90000E94F70820E030E040EA5BE30E94AC09E6
:100AA00020E030E048EC52E40E94AC096B017C018C
:100AB00061E086E00E94F20222E0B701A60184E331
:100AC00092E00E943D04809188019091890163E049
:100AD00004970CF069C081E00E94F2026CE271E0C0
:100AE00084E392E00E94AC03809188019091890197
:100AF000029709F052C080919301909194012CE3E8
:100B0000289FE001299FD00D1124D0938701C09325
:100B1000860162E084E00E94F202BE0184E392E07A
:100B20000E94070468E371E084E392E00E94AC0352
:100B30006BE371E087E991E00E94AC0322E0B7012A
:100B4000A60187E991E00E943D0469E471E087E92C
:100B500091E00E94AC036EE471E087E991E00E94AD
:100B6000AC03609186017091870187E991E00E9452
:100B700007046BE571E087E991E00E94AC0360E651
:100B800071E087E991E00E94AC0310929401109209
:100B900093011092890110928801DF91CF91FF900B
:100BA000EF90DF90CF90089581E00E94F20265E31C
:100BB00071E096CF1F920F920FB60F9211242F93D0
:100BC0003F934F935F936F937F938F939F93AF93D5
:100BD000BF93EF93FF9387E991E00E941101FF918A
:100BE000EF91BF91AF919F918F917F916F915F91A5
:100BF0004F913F912F910F900FBE0F901F9018951E
:100C00001F920F920FB60F9211242F938F939F93E1
:100C1000EF93FF93E091A701F091A8018081E0910B
:100C2000AD01F091AE0182FD1BC090818091B001B9
:100C30008F5F8F732091B101821741F0E091B00175
:100C4000F0E0E956FE4F958F8093B001FF91EF9150
:100C50009F918F912F910F900FBE0F901F9018951D
:100C60008081F4CF1F920F920FB60F9211242F9311
:100C70003F938F939F93AF93BF9380918F019091F8
:100C80009001A0919101B091920130918E0123E0E9
:100C9000230F2D3758F50196A11DB11D20938E010C
:100CA00080938F0190939001A0939101B093920152
:100CB00080918A0190918B01A0918C01B0918D015E
:100CC0000196A11DB11D80938A0190938B01A09381
:100CD0008C01B0938D01BF91AF919F918F913F9106
:100CE0002F910F900FBE0F901F90189526E8230F9D
:100CF0000296A11DB11DD2CF1F920F920FB60F9277
:100D000011242F933F934F935F936F937F938F9310
:100D10009F93AF93BF93EF93FF93E0910001F09106
:100D200001010995FF91EF91BF91AF919F918F9133
:100D30007F916F915F914F913F912F910F900FBED7
:100D40000F901F901895E7E9F1E01382128288EE68
:100D500093E0A0E0B0E084839583A683B78386E028
:100D600091E09183808385EC90E09587848784EC83
:100D700090E09787868780EC90E0918B808B81EC68
:100D800090E0938B828B82EC90E0958B848B86EC49
:100D900090E0978B868B118E128E138E148EE4E367
:100DA000F2E01382128288E191E0918380838DE0EA
:100DB00084838FEF85838CE086838BE087838AE052
:100DC000808789E0818788E082871386148615866C
:100DD0001686178661E080E10C940103789484B54F
:100DE000826084BD84B5816084BD85B5826085BD27
:100DF00085B5816085BD80916E00816080936E00B5
:100E000010928100809181008260809381008091A6
:100E10008100816080938100809180008160809357
:100E200080008091B10084608093B1008091B00017
:100E300081608093B00080917A00846080937A0012
:100E400080917A00826080937A0080917A0081603C
:100E500080937A0080917A00806880937A00109263
:100E6000C10060E08EE00E94200260E08FE00E94FE
:100E7000200280E1809381001092800082E19AE755
:100E8000909387008093860084E18093810083E2C1
:100E900095E0909301018093000181E080936F00C1
:100EA00064E084E10E94010381E00E94EC028BE394
:100EB0009FE10197F1F760E080E00E94F20263E6B3
:100EC00071E084E392E00E94AC0361E080E00E9464
:100ED000F20269E771E084E392E00E94AC0362E011
:100EE00080E00E94F20260E871E084E392E00E94F8
:100EF000AC03E091A701F091A80182E08083E0912A
:100F0000A301F091A4011082E091A501F091A60146
:100F10008FEC80831092AF01E091AB01F091AC01B6
:100F200086E08083E091A901F091AA01808180612F
:100F30008083E091A901F091AA018081886080837B
:100F4000E091A901F091AA01808180688083E091FD
:100F5000A901F091AA0180818F7D8083C0E0D0E05B
:100F60008EE00E94C90181309105A1F42091950184
:100F700030919601232B71F42091930130919401CB
:100F80002F5F3F4F309394012093930190939601EC
:100F9000809395018EE00E94C901892B51F48091C4
:100FA000950190919601019721F41092960110926B
:100FB00095012097A9F20E94FD00882389F20E94E2
:100FC0000000CECF5058BB27AA270E94FA070C94E6
:100FD0006D090E945F0938F00E94660920F039F41B
:100FE0009F3F19F426F40C945C090EF4E095E7FB9E
:100FF0000C945609E92F0E947E0958F3BA1762072C
:1010000073078407950720F079F4A6F50C94A009DE
:101010000EF4E0950B2EBA2FA02D0B01B901900113
:101020000C01CA01A0011124FF27591B99F0593F57
:1010300050F4503E68F11A16F040A22F232F342F9F
:101040004427585FF3CF469537952795A795F040ED
:101050005395C9F77EF41F16BA0B620B730B840B02
:10106000BAF09150A1F0FF0FBB1F661F771F881FBA
:10107000C2F70EC0BA0F621F731F841F48F4879512
:1010800077956795B795F7959E3F08F0B0CF939504
:10109000880F08F09927EE0F9795879508950E947D
:1010A000320908F481E008950E9468080C946D09E3
:1010B0000E94660958F00E945F0940F029F45F3FE2
:1010C00029F00C94560951110C94A1090C945C0957
:1010D0000E947E0968F39923B1F3552391F3951B80
:1010E000550BBB27AA2762177307840738F09F5F49
:1010F0005F4F220F331F441FAA1FA9F335D00E2EB6
:101100003AF0E0E832D091505040E695001CCAF722
:101110002BD0FE2F29D0660F771F881FBB1F2617E5
:1011200037074807AB07B0E809F0BB0B802DBF01BC
:10113000FF2793585F4F3AF09E3F510578F00C948B
:1011400056090C94A1095F3FE4F3983ED4F38695C9
:1011500077956795B795F7959F5FC9F7880F911DAC
:101160009695879597F90895E1E0660F771F881F98
:10117000BB1F621773078407BA0720F0621B730B4B
:10118000840BBA0BEE1F88F7E09508950E9486093C
:1011900088F09F5798F0B92F9927B751B0F0E1F038
:1011A000660F771F881F991F1AF0BA95C9F714C0E8
:1011B000B13091F00E94A009B1E008950C94A0090B
:1011C000672F782F8827B85F39F0B93FCCF3869521
:1011D00077956795B395D9F73EF49095809570957E
:1011E00061957F4F8F4F9F4F0895E89409C097FBFB
:1011F0003EF490958095709561957F4F8F4F9F4FEE
:101200009923A9F0F92F96E9BB279395F695879531
:1012100077956795B795F111F8CFFAF4BB0F11F4F4
:1012200060FF1BC06F5F7F4F8F4F9F4F16C088239B
:1012300011F096E911C0772321F09EE8872F762FD1
:1012400005C0662371F096E8862F70E060E02AF012
:101250009A95660F771F881FDAF7880F96958795FE
:1012600097F90895990F0008550FAA0BE0E8FEEFD3
:1012700016161706E807F907C0F012161306E4075A
:10128000F50798F0621B730B840B950B39F40A2653
:1012900061F0232B242B252B21F408950A2609F431
:1012A000A140A6958FEF811D811D089597F99F6735
:1012B00080E870E060E008959FEF80EC08950024DE
:1012C0000A941616170618060906089500240A94AB
:1012D00012161306140605060895092E0394000C31
:1012E00011F4882352F0BB0F40F4BF2B11F460FFC0
:1012F00004C06F5F7F4F8F4F9F4F089557FD9058E9
:10130000440F551F59F05F3F71F04795880F97FBC9
:10131000991F61F09F3F79F0879508951216130683
:101320001406551FF2CF4695F1DF08C016161706B2
:101330001806991FF1CF86957105610508940895E7
:10134000E894BB2766277727CB0197F908950E9479
:10135000320908F48FEF08950E94BF090C946D09BB
:101360000E945F0938F00E94660920F0952311F071
:101370000C9456090C945C0911240C94A1090E9448
:101380007E0970F3959FC1F3950F50E0551F629F42
:10139000F001729FBB27F00DB11D639FAA27F00DCE
:1013A000B11DAA1F649F6627B00DA11D661F829FF5
:1013B0002227B00DA11D621F739FB00DA11D621FDA
:1013C000839FA00D611D221F749F3327A00D611DF7
:1013D000231F849F600D211D822F762F6A2F1124D9
:1013E0009F5750409AF0F1F088234AF0EE0FFF1F0C
:1013F000BB1F661F771F881F91505040A9F79E3F63
:10140000510580F00C9456090C94A1095F3FE4F358
:10141000983ED4F3869577956795B795F795E795B8
:101420009F5FC1F7FE2B880F911D9695879597F9C1
:1014300008950E943209880B990B0895A1E21A2E93
:10144000AA1BBB1BFD010DC0AA1FBB1FEE1FFF1F68
:10145000A217B307E407F50720F0A21BB30BE40BB8
:10146000F50B661F771F881F991F1A9469F76095FF
:101470007095809590959B01AC01BD01CF010895B9
:10148000EE0FFF1F0590F491E02D0994F894FFCF23
:1014900055020000000033019300C0008001F100FC
:1014A000CF00E30000000000A603930052025102A7
:1014B0006E616E00696E66006F7666005343414E42
:1014C0004E494E470020202020200054656D706555
:1014D0007261747572653A200020432C20004865C3
:1014E00061727420426561743A20002042504D00C0
:1014F0000D0A004D464120494E20496F5420484571
:10150000414C5448434152450054656D703A2000A7
:0615100048423A200000F1
:00000001FF
